{
  "contractName": "PriceChart",
  "abi": [
    {
      "constant": true,
      "inputs": [],
      "name": "getOwnerAddress",
      "outputs": [
        {
          "name": "",
          "type": "address"
        }
      ],
      "payable": false,
      "stateMutability": "view",
      "type": "function"
    },
    {
      "constant": true,
      "inputs": [],
      "name": "getNum",
      "outputs": [
        {
          "name": "",
          "type": "uint256"
        }
      ],
      "payable": false,
      "stateMutability": "view",
      "type": "function"
    },
    {
      "constant": true,
      "inputs": [
        {
          "name": "index",
          "type": "uint256"
        }
      ],
      "name": "getName",
      "outputs": [
        {
          "name": "",
          "type": "bytes1"
        }
      ],
      "payable": false,
      "stateMutability": "view",
      "type": "function"
    },
    {
      "constant": true,
      "inputs": [],
      "name": "owner",
      "outputs": [
        {
          "name": "",
          "type": "address"
        }
      ],
      "payable": false,
      "stateMutability": "view",
      "type": "function"
    },
    {
      "constant": false,
      "inputs": [
        {
          "name": "name",
          "type": "bytes1"
        },
        {
          "name": "price",
          "type": "uint256"
        }
      ],
      "name": "addUtil",
      "outputs": [],
      "payable": false,
      "stateMutability": "nonpayable",
      "type": "function"
    },
    {
      "constant": true,
      "inputs": [],
      "name": "getBasePrice",
      "outputs": [
        {
          "name": "",
          "type": "uint256"
        }
      ],
      "payable": false,
      "stateMutability": "view",
      "type": "function"
    },
    {
      "constant": true,
      "inputs": [
        {
          "name": "index",
          "type": "uint256"
        }
      ],
      "name": "getPrice",
      "outputs": [
        {
          "name": "",
          "type": "uint256"
        }
      ],
      "payable": false,
      "stateMutability": "view",
      "type": "function"
    },
    {
      "inputs": [
        {
          "name": "_basePrice",
          "type": "uint256"
        }
      ],
      "payable": false,
      "stateMutability": "nonpayable",
      "type": "constructor"
    }
  ],
  "bytecode": "0x60606040526000600355341561001457600080fd5b60405160208061066383398101604052808051906020019091905050336000806101000a81548173ffffffffffffffffffffffffffffffffffffffff021916908373ffffffffffffffffffffffffffffffffffffffff16021790555080600481905550506105dc806100876000396000f300606060405260043610610083576000357c0100000000000000000000000000000000000000000000000000000000900463ffffffff1680630c4f65bd1461008857806367e0badb146100dd5780636b8ff574146101065780638da5cb5b146101815780639d5db224146101d6578063b49f4afd14610224578063e75722301461024d575b600080fd5b341561009357600080fd5b61009b610284565b604051808273ffffffffffffffffffffffffffffffffffffffff1673ffffffffffffffffffffffffffffffffffffffff16815260200191505060405180910390f35b34156100e857600080fd5b6100f06102ad565b6040518082815260200191505060405180910390f35b341561011157600080fd5b61012760048080359060200190919050506102b7565b60405180827effffffffffffffffffffffffffffffffffffffffffffffffffffffffffffff19167effffffffffffffffffffffffffffffffffffffffffffffffffffffffffffff1916815260200191505060405180910390f35b341561018c57600080fd5b610194610325565b604051808273ffffffffffffffffffffffffffffffffffffffff1673ffffffffffffffffffffffffffffffffffffffff16815260200191505060405180910390f35b34156101e157600080fd5b61022260048080357effffffffffffffffffffffffffffffffffffffffffffffffffffffffffffff191690602001909190803590602001909190505061034a565b005b341561022f57600080fd5b610237610468565b6040518082815260200191505060405180910390f35b341561025857600080fd5b61026e6004808035906020019091905050610472565b6040518082815260200191505060405180910390f35b60008060009054906101000a900473ffffffffffffffffffffffffffffffffffffffff16905090565b6000600354905090565b600060018281546001816001161561010002031660029004811015156102d957fe5b8154600116156102f85790600052602060002090602091828204019190065b9054901a7f0100000000000000000000000000000000000000000000000000000000000000029050919050565b6000809054906101000a900473ffffffffffffffffffffffffffffffffffffffff1681565b6000809054906101000a900473ffffffffffffffffffffffffffffffffffffffff1673ffffffffffffffffffffffffffffffffffffffff163373ffffffffffffffffffffffffffffffffffffffff161415156103a557600080fd5b6001805460018160011615610100020316600290048060010182816103ca9190610496565b91908154600116156103eb5790600052602060002090602091828204019190065b8490919091601f036101000a81548160ff021916907f010000000000000000000000000000000000000000000000000000000000000084040217905550506002805480600101828161043d919061055f565b9160005260206000209001600083909190915055506003600081548092919060010191905055505050565b6000600454905090565b600060028281548110151561048357fe5b9060005260206000209001549050919050565b81546001816001161561010002031660029004825481601f106104f15782601f106104d6575b826008026101000360020a8091040282800117835561055a565b60ff191683600052602060002055818001600101835561055a565b82601f10610521575082600052602060002080549082601f016020900481019061051b919061058b565b506104bc565b5081800160010183558181151161055a57601f016020900481601f01602090048360005260206000209182019101610559919061058b565b5b505050565b81548183558181151161058657818360005260206000209182019101610585919061058b565b5b505050565b6105ad91905b808211156105a9576000816000905550600101610591565b5090565b905600a165627a7a7230582075b26d1c96f256f42726eb29715fb9b37db4a945a88176c6118dd95e56d8e9800029",
  "source": "pragma solidity ^0.4.0;\r\n\r\ncontract PriceChart {\r\n  address public owner;\r\n  bytes utilName;\r\n  uint[] utilPrice;\r\n  uint utilCount = 0;\r\n  uint basePrice;\r\n\r\n  modifier onlyOwner() {\r\n    require(msg.sender == owner);\r\n    _;\r\n  }\r\n\r\n  function PriceChart(uint _basePrice) {\r\n    owner = msg.sender;\r\n    basePrice = _basePrice;\r\n  }\r\n\r\n  function addUtil(bytes1 name, uint price)\r\n  onlyOwner\r\n  {\r\n    utilName.push(name);\r\n    utilPrice.push(price);\r\n    utilCount++;\r\n  }\r\n\r\n  function getBasePrice() constant external returns (uint) {\r\n    return basePrice;\r\n  }\r\n\r\n  function getPrice(uint index) constant external returns(uint){\r\n    return utilPrice[index];\r\n  }\r\n\r\n  function getName(uint index) constant external returns(bytes1){\r\n    return utilName[index];\r\n  }\r\n\r\n  function getNum() constant external returns (uint){\r\n    return utilCount;\r\n  }\r\n\r\n  function getOwnerAddress() constant external returns (address){\r\n    return owner;\r\n  }\r\n\r\n}\r\n",
  "sourcePath": "C:\\Users\\Tuan Duy\\blockathon2017-team6\\contracts\\PriceChart.sol",
  "compiler": {
    "name": "solc",
    "version": "0.4.18+commit.9cf6e910.Emscripten.clang"
  },
  "schemaVersion": "1.0.1",
  "updatedAt": "2017-11-25T09:53:22.161Z"
}