{
  "contractName": "Purchase",
  "abi": [
    {
      "constant": true,
      "inputs": [],
      "name": "seller",
      "outputs": [
        {
          "name": "",
          "type": "address"
        }
      ],
      "payable": false,
      "stateMutability": "view",
      "type": "function"
    },
    {
      "constant": false,
      "inputs": [],
      "name": "abort",
      "outputs": [],
      "payable": false,
      "stateMutability": "nonpayable",
      "type": "function"
    },
    {
      "constant": false,
      "inputs": [],
      "name": "withdraw",
      "outputs": [],
      "payable": false,
      "stateMutability": "nonpayable",
      "type": "function"
    },
    {
      "constant": true,
      "inputs": [],
      "name": "buyer",
      "outputs": [
        {
          "name": "",
          "type": "address"
        }
      ],
      "payable": false,
      "stateMutability": "view",
      "type": "function"
    },
    {
      "constant": false,
      "inputs": [],
      "name": "confirmReceived",
      "outputs": [],
      "payable": false,
      "stateMutability": "nonpayable",
      "type": "function"
    },
    {
      "constant": true,
      "inputs": [],
      "name": "price",
      "outputs": [
        {
          "name": "",
          "type": "uint256"
        }
      ],
      "payable": false,
      "stateMutability": "view",
      "type": "function"
    },
    {
      "constant": true,
      "inputs": [],
      "name": "state",
      "outputs": [
        {
          "name": "",
          "type": "uint8"
        }
      ],
      "payable": false,
      "stateMutability": "view",
      "type": "function"
    },
    {
      "constant": false,
      "inputs": [],
      "name": "confirmPurchase",
      "outputs": [],
      "payable": true,
      "stateMutability": "payable",
      "type": "function"
    },
    {
      "inputs": [],
      "payable": true,
      "stateMutability": "payable",
      "type": "constructor"
    },
    {
      "anonymous": false,
      "inputs": [],
      "name": "Aborted",
      "type": "event"
    },
    {
      "anonymous": false,
      "inputs": [],
      "name": "PurchaseConfirmed",
      "type": "event"
    },
    {
      "anonymous": false,
      "inputs": [],
      "name": "ItemReceived",
      "type": "event"
    }
  ],
  "bytecode": "0x606060405233600160006101000a81548173ffffffffffffffffffffffffffffffffffffffff021916908373ffffffffffffffffffffffffffffffffffffffff16021790555060023481151561005157fe5b0460008190555060005460020260036000600160009054906101000a900473ffffffffffffffffffffffffffffffffffffffff1673ffffffffffffffffffffffffffffffffffffffff1673ffffffffffffffffffffffffffffffffffffffff16815260200190815260200160002060008282540192505081905550346000546002021415156100df57600080fd5b6106d1806100ee6000396000f30060606040526004361061008e576000357c0100000000000000000000000000000000000000000000000000000000900463ffffffff16806308551a531461009357806335a063b4146100e85780633ccfd60b146100fd5780637150d8ae1461011257806373fac6f014610167578063a035b1fe1461017c578063c19d93fb146101a5578063d6960697146101dc575b600080fd5b341561009e57600080fd5b6100a66101e6565b604051808273ffffffffffffffffffffffffffffffffffffffff1673ffffffffffffffffffffffffffffffffffffffff16815260200191505060405180910390f35b34156100f357600080fd5b6100fb61020c565b005b341561010857600080fd5b610110610369565b005b341561011d57600080fd5b610125610435565b604051808273ffffffffffffffffffffffffffffffffffffffff1673ffffffffffffffffffffffffffffffffffffffff16815260200191505060405180910390f35b341561017257600080fd5b61017a61045b565b005b341561018757600080fd5b61018f61053f565b6040518082815260200191505060405180910390f35b34156101b057600080fd5b6101b8610545565b604051808260028111156101c857fe5b60ff16815260200191505060405180910390f35b6101e4610558565b005b600160009054906101000a900473ffffffffffffffffffffffffffffffffffffffff1681565b600160009054906101000a900473ffffffffffffffffffffffffffffffffffffffff1673ffffffffffffffffffffffffffffffffffffffff163373ffffffffffffffffffffffffffffffffffffffff1614151561026857600080fd5b600080600281111561027657fe5b600460009054906101000a900460ff16600281111561029157fe5b14151561029d57600080fd5b7f72c874aeff0b183a56e2b79c71b46e1aed4dee5e09862134b8821ba2fddbf8bf60405160405180910390a16002600460006101000a81548160ff021916908360028111156102e857fe5b0217905550600160009054906101000a900473ffffffffffffffffffffffffffffffffffffffff1673ffffffffffffffffffffffffffffffffffffffff166108fc3073ffffffffffffffffffffffffffffffffffffffff16319081150290604051600060405180830381858888f19350505050151561036657600080fd5b50565b6000600360003373ffffffffffffffffffffffffffffffffffffffff1673ffffffffffffffffffffffffffffffffffffffff1681526020019081526020016000205490506000600360003373ffffffffffffffffffffffffffffffffffffffff1673ffffffffffffffffffffffffffffffffffffffff168152602001908152602001600020819055503373ffffffffffffffffffffffffffffffffffffffff166108fc829081150290604051600060405180830381858888f19350505050151561043257600080fd5b50565b600260009054906101000a900473ffffffffffffffffffffffffffffffffffffffff1681565b600260009054906101000a900473ffffffffffffffffffffffffffffffffffffffff1673ffffffffffffffffffffffffffffffffffffffff163373ffffffffffffffffffffffffffffffffffffffff161415156104b757600080fd5b60018060028111156104c557fe5b600460009054906101000a900460ff1660028111156104e057fe5b1415156104ec57600080fd5b7fe89152acd703c9d8c7d28829d443260b411454d45394e7995815140c8cbcbcf760405160405180910390a16002600460006101000a81548160ff0219169083600281111561053757fe5b021790555050565b60005481565b600460009054906101000a900460ff1681565b600080600281111561056657fe5b600460009054906101000a900460ff16600281111561058157fe5b14151561058d57600080fd5b60005460020234148015156105a157600080fd5b7fd5d55c8a68912e9a110618df8d5e2e83b8d83211c57a8ddd1203df92885dc88160405160405180910390a133600260006101000a81548173ffffffffffffffffffffffffffffffffffffffff021916908373ffffffffffffffffffffffffffffffffffffffff1602179055503460036000600260009054906101000a900473ffffffffffffffffffffffffffffffffffffffff1673ffffffffffffffffffffffffffffffffffffffff1673ffffffffffffffffffffffffffffffffffffffff168152602001908152602001600020600082825401925050819055506001600460006101000a81548160ff0219169083600281111561069c57fe5b021790555050505600a165627a7a7230582041a1848e5d1b3730a8e345b57e6e6269eb3399ac3432f86d2b382efc97ffba130029",
  "source": "pragma solidity ^0.4.1;\r\n\r\n///seller deposit 2x the price, buyer pay and deposit an\r\n///equivalent amount\r\n\r\ncontract Purchase {\r\n  uint public price;\r\n  address public seller;\r\n  address public buyer;\r\n  enum State { Created, Locked, Inactive }\r\n  mapping (address => uint) pendingWithdrawals;\r\n  State public state;\r\n  // Ensure that `msg.value` is an even number.\r\n  // Division will truncate if it is an odd number\r\n  // Check via multiplication that it wasn't an odd number.\r\n  function Purchase() payable {\r\n    seller = msg.sender;\r\n    price = msg.value / 2;\r\n    pendingWithdrawals[seller] += 2*price;\r\n    require((2 * price ) == msg.value);\r\n  }\r\n  modifier condition(bool _condition) {\r\n    require(_condition);\r\n    _;\r\n  }\r\n  modifier onlyBuyer() {\r\n    require(msg.sender == buyer);\r\n    _;\r\n  }\r\n  modifier onlySeller() {\r\n    require(msg.sender == seller);\r\n    _;\r\n  }\r\n  modifier inState(State _state) {\r\n    require(state == _state);\r\n    _;\r\n  }\r\n  event Aborted();\r\n  event PurchaseConfirmed();\r\n  event ItemReceived();\r\n  ///event need to inform options: open the door, unlock utils\r\n  /// Abort the purchase and reclaim the ether.\r\n  /// Can only be called by the seller before\r\n  /// the contract is locked.\r\n\r\n  function abort()\r\n  onlySeller\r\n  inState(State.Created)\r\n  {\r\n    Aborted();\r\n    state = State.Inactive;\r\n    seller.transfer(this.balance);\r\n  }\r\n  /// Confirm the purchase as buyer.\r\n  /// Transaction has to include `2 * value` ether.\r\n  /// The ether will be locked until confirmReceived\r\n  /// is called.\r\n  function confirmPurchase()\r\n  inState(State.Created)\r\n  condition(msg.value == 2*price)\r\n  payable\r\n  {\r\n    PurchaseConfirmed();\r\n    buyer = msg.sender;\r\n    pendingWithdrawals[buyer] += msg.value;\r\n    state = State.Locked;\r\n  }\r\n  /// Confirm that you (the buyer) received the item.\r\n  /// This will release the locked ether.\r\n  function confirmReceived()\r\n  onlyBuyer\r\n  inState(State.Locked)\r\n  {\r\n    ItemReceived();\r\n    // It is important to change the state first because\r\n    // otherwise, the contracts called using `send` below\r\n    // can call in again here.\r\n    state = State.Inactive;\r\n    // NOTE: This actually allows both the buyer and the seller to\r\n    // block the refund - the withdraw pattern should be used.\r\n    //buyer.transfer(value);\r\n    //seller.transfer(this.balance);\r\n  }\r\n  //withdraw\r\n  function withdraw() {\r\n    uint amount = pendingWithdrawals[msg.sender];\r\n    pendingWithdrawals[msg.sender] = 0;\r\n    msg.sender.transfer(amount);\r\n  }\r\n\r\n}\r\n",
  "sourcePath": "C:\\Users\\Tuan Duy\\blockathon2017-team6\\contracts\\Purchase.sol",
  "compiler": {
    "name": "solc",
    "version": "0.4.18+commit.9cf6e910.Emscripten.clang"
  },
  "schemaVersion": "1.0.1",
  "updatedAt": "2017-11-24T21:14:49.711Z"
}