{
  "contractName": "Purchase",
  "abi": [
    {
      "constant": true,
      "inputs": [],
      "name": "seller",
      "outputs": [
        {
          "name": "",
          "type": "address"
        }
      ],
      "payable": false,
      "stateMutability": "view",
      "type": "function"
    },
    {
      "constant": false,
      "inputs": [],
      "name": "abort",
      "outputs": [],
      "payable": false,
      "stateMutability": "nonpayable",
      "type": "function"
    },
    {
      "constant": false,
      "inputs": [
        {
          "name": "index",
          "type": "uint256"
        }
      ],
      "name": "buyMore",
      "outputs": [],
      "payable": true,
      "stateMutability": "payable",
      "type": "function"
    },
    {
      "constant": true,
      "inputs": [],
      "name": "buyer",
      "outputs": [
        {
          "name": "",
          "type": "address"
        }
      ],
      "payable": false,
      "stateMutability": "view",
      "type": "function"
    },
    {
      "constant": true,
      "inputs": [],
      "name": "punish",
      "outputs": [
        {
          "name": "",
          "type": "uint256"
        }
      ],
      "payable": false,
      "stateMutability": "view",
      "type": "function"
    },
    {
      "constant": true,
      "inputs": [],
      "name": "price",
      "outputs": [
        {
          "name": "",
          "type": "uint256"
        }
      ],
      "payable": false,
      "stateMutability": "view",
      "type": "function"
    },
    {
      "constant": true,
      "inputs": [],
      "name": "state",
      "outputs": [
        {
          "name": "",
          "type": "uint8"
        }
      ],
      "payable": false,
      "stateMutability": "view",
      "type": "function"
    },
    {
      "constant": false,
      "inputs": [],
      "name": "confirmPurchase",
      "outputs": [],
      "payable": false,
      "stateMutability": "nonpayable",
      "type": "function"
    },
    {
      "inputs": [],
      "payable": true,
      "stateMutability": "payable",
      "type": "function",
      "constant": false,
      "name": "confirmArriving",
      "outputs": []
    },
    {
      "anonymous": false,
      "inputs": [
        {
          "name": "_priceChart",
          "type": "address"
        },
        {
          "name": "_utilName",
          "type": "bytes"
        }
      ],
      "name": "Aborted",
      "type": "constructor",
      "payable": true,
      "stateMutability": "payable"
    },
    {
      "anonymous": false,
      "inputs": [],
      "name": "Aborted",
      "type": "event"
    },
    {
      "anonymous": false,
      "inputs": [
        {
          "indexed": false,
          "name": "name",
          "type": "bytes1"
        }
      ],
      "name": "BuyMore",
      "type": "event"
    },
    {
      "anonymous": false,
      "inputs": [],
      "name": "PurchaseConfirmed",
      "type": "event"
    },
    {
      "anonymous": false,
      "inputs": [],
      "name": "RoomReceived",
      "type": "event"
    }
  ],
  "bytecode": "0x6060604052604051602080610b778339810160405280805190602001909190505080600460006101000a81548173ffffffffffffffffffffffffffffffffffffffff021916908373ffffffffffffffffffffffffffffffffffffffff16021790555033600360006101000a81548173ffffffffffffffffffffffffffffffffffffffff021916908373ffffffffffffffffffffffffffffffffffffffff160217905550600460009054906101000a900473ffffffffffffffffffffffffffffffffffffffff1673ffffffffffffffffffffffffffffffffffffffff16630c4f65bd6000604051602001526040518163ffffffff167c0100000000000000000000000000000000000000000000000000000000028152600401602060405180830381600087803b151561013057600080fd5b6102c65a03f1151561014157600080fd5b50505060405180519050600260006101000a81548173ffffffffffffffffffffffffffffffffffffffff021916908373ffffffffffffffffffffffffffffffffffffffff1602179055503460008190555060146000548115156101a057fe5b04600181905550600054600460009054906101000a900473ffffffffffffffffffffffffffffffffffffffff1673ffffffffffffffffffffffffffffffffffffffff1663b49f4afd6000604051602001526040518163ffffffff167c0100000000000000000000000000000000000000000000000000000000028152600401602060405180830381600087803b151561023857600080fd5b6102c65a03f1151561024957600080fd5b5050506040518051905014151561025f57600080fd5b506109088061026f6000396000f300606060405260043610610099576000357c0100000000000000000000000000000000000000000000000000000000900463ffffffff16806308551a531461009e57806335a063b4146100f357806344f06701146101085780637150d8ae14610120578063826d3dec14610175578063a035b1fe1461019e578063c19d93fb146101c7578063d6960697146101fe578063ebe629d714610213575b600080fd5b34156100a957600080fd5b6100b161021d565b604051808273ffffffffffffffffffffffffffffffffffffffff1673ffffffffffffffffffffffffffffffffffffffff16815260200191505060405180910390f35b34156100fe57600080fd5b610106610243565b005b61011e60048080359060200190919050506103c3565b005b341561012b57600080fd5b610133610656565b604051808273ffffffffffffffffffffffffffffffffffffffff1673ffffffffffffffffffffffffffffffffffffffff16815260200191505060405180910390f35b341561018057600080fd5b61018861067c565b6040518082815260200191505060405180910390f35b34156101a957600080fd5b6101b1610682565b6040518082815260200191505060405180910390f35b34156101d257600080fd5b6101da610688565b604051808260028111156101ea57fe5b60ff16815260200191505060405180910390f35b341561020957600080fd5b61021161069b565b005b61021b6107f8565b005b600260009054906101000a900473ffffffffffffffffffffffffffffffffffffffff1681565b600360009054906101000a900473ffffffffffffffffffffffffffffffffffffffff1673ffffffffffffffffffffffffffffffffffffffff163373ffffffffffffffffffffffffffffffffffffffff1614151561029f57600080fd5b60008060028111156102ad57fe5b600460149054906101000a900460ff1660028111156102c857fe5b1415156102d457600080fd5b7f72c874aeff0b183a56e2b79c71b46e1aed4dee5e09862134b8821ba2fddbf8bf60405160405180910390a16002600460146101000a81548160ff0219169083600281111561031f57fe5b0217905550600260009054906101000a900473ffffffffffffffffffffffffffffffffffffffff1673ffffffffffffffffffffffffffffffffffffffff166108fc6001549081150290604051600060405180830381858888f19350505050151561038857600080fd5b600360009054906101000a900473ffffffffffffffffffffffffffffffffffffffff1673ffffffffffffffffffffffffffffffffffffffff16ff5b60018060028111156103d157fe5b600460149054906101000a900460ff1660028111156103ec57fe5b1415156103f857600080fd5b600360009054906101000a900473ffffffffffffffffffffffffffffffffffffffff1673ffffffffffffffffffffffffffffffffffffffff163373ffffffffffffffffffffffffffffffffffffffff1614151561045457600080fd5b34600460009054906101000a900473ffffffffffffffffffffffffffffffffffffffff1673ffffffffffffffffffffffffffffffffffffffff1663e7572230846000604051602001526040518263ffffffff167c010000000000000000000000000000000000000000000000000000000002815260040180828152602001915050602060405180830381600087803b15156104ee57600080fd5b6102c65a03f115156104ff57600080fd5b5050506040518051905014151561051557600080fd5b7f163e09c54602eb031b27f6da8c68420690bf93dff32966c090f37b416c77f16b600460009054906101000a900473ffffffffffffffffffffffffffffffffffffffff1673ffffffffffffffffffffffffffffffffffffffff16636b8ff574846000604051602001526040518263ffffffff167c010000000000000000000000000000000000000000000000000000000002815260040180828152602001915050602060405180830381600087803b15156105cf57600080fd5b6102c65a03f115156105e057600080fd5b5050506040518051905060405180827effffffffffffffffffffffffffffffffffffffffffffffffffffffffffffff19167effffffffffffffffffffffffffffffffffffffffffffffffffffffffffffff1916815260200191505060405180910390a13460008082825401925050819055505050565b600360009054906101000a900473ffffffffffffffffffffffffffffffffffffffff1681565b60015481565b60005481565b600460149054906101000a900460ff1681565b600360009054906101000a900473ffffffffffffffffffffffffffffffffffffffff1673ffffffffffffffffffffffffffffffffffffffff163373ffffffffffffffffffffffffffffffffffffffff161415156106f757600080fd5b600180600281111561070557fe5b600460149054906101000a900460ff16600281111561072057fe5b14151561072c57600080fd5b7fd5d55c8a68912e9a110618df8d5e2e83b8d83211c57a8ddd1203df92885dc88160405160405180910390a16002600460146101000a81548160ff0219169083600281111561077757fe5b0217905550600260009054906101000a900473ffffffffffffffffffffffffffffffffffffffff1673ffffffffffffffffffffffffffffffffffffffff166108fc3073ffffffffffffffffffffffffffffffffffffffff16319081150290604051600060405180830381858888f1935050505015156107f557600080fd5b50565b600360009054906101000a900473ffffffffffffffffffffffffffffffffffffffff1673ffffffffffffffffffffffffffffffffffffffff163373ffffffffffffffffffffffffffffffffffffffff1614151561085457600080fd5b600080600281111561086257fe5b600460149054906101000a900460ff16600281111561087d57fe5b14151561088957600080fd5b7f7dc978f66f3c519e05c40ed47ba67ee7bf11257bdd46f6c4fe47c051951c538760405160405180910390a16001600460146101000a81548160ff021916908360028111156108d457fe5b0217905550505600a165627a7a723058207e2ad4d479d9021be998c29d29a6295dc3e85b4b9db32ab1c524ad98b13f5f950029",
  "source": "pragma solidity ^0.4.0;\r\n\r\nimport \"./PriceChart.sol\";\r\n\r\ncontract Purchase {\r\n  uint public price;\r\n  uint public punish;\r\n  address public seller;\r\n  address public buyer;\r\n  PriceChart chart;\r\n\r\n  enum State { Created, Locked, Inactive }\r\n  State public state;\r\n  function Purchase(address _priceChart) payable {\r\n    chart = PriceChart(_priceChart);\r\n    buyer = msg.sender;\r\n    seller = chart.getOwnerAddress();\r\n    price = msg.value;\r\n    punish = price/20;\r\n    require(chart.getBasePrice() == price);\r\n  }\r\n\r\n  modifier condition(bool _condition) {\r\n    require(_condition);\r\n    _;\r\n  }\r\n  modifier onlyBuyer() {\r\n    require(msg.sender == buyer);\r\n    _;\r\n  }\r\n  /*modifier onlySeller() {\r\n    require(msg.sender == seller);\r\n    _;\r\n  }*/\r\n  modifier inState(State _state) {\r\n    require(state == _state);\r\n    _;\r\n  }\r\n  //Abort before arrive\r\n  event Aborted();\r\n  //buy more ultility\r\n  event BuyMore(bytes1 name);\r\n  //purchase after the door has been unlock\r\n  event PurchaseConfirmed();\r\n  ///event need to inform options: open the door, unlock utils\r\n  event RoomReceived();\r\n\r\n\r\n  //abort before arriving\r\n  function abort()\r\n  onlyBuyer\r\n  inState(State.Created)\r\n  {\r\n    Aborted();\r\n    state = State.Inactive;\r\n    seller.transfer(punish);\r\n    //this.balance -= punish;\r\n    selfdestruct(buyer);\r\n  }\r\n\r\n  //confirm arriving to unlock the door\r\n  function confirmArriving()\r\n  onlyBuyer\r\n  inState(State.Created)\r\n  payable\r\n  {\r\n    RoomReceived();\r\n    state = State.Locked;\r\n  }\r\n\r\n  //withdraw after unlocking the door\r\n  function buyMore(uint index)\r\n  inState(State.Locked)\r\n  onlyBuyer\r\n  payable\r\n  {\r\n    require(chart.getPrice(index) == msg.value);\r\n    BuyMore(chart.getName(index));\r\n    price += msg.value;\r\n  }\r\n  /// Confirm that you (the buyer) received the item.\r\n  /// This will release the locked ether.\r\n  function confirmPurchase()\r\n  onlyBuyer\r\n  inState(State.Locked)\r\n  {\r\n    PurchaseConfirmed();\r\n    // It is important to change the state first because\r\n    // otherwise, the contracts called using `send` below\r\n    // can call in again here.\r\n    state = State.Inactive;\r\n    seller.transfer(this.balance);\r\n  }\r\n\r\n}\r\n",
  "sourcePath": "C:\\Users\\Tuan Duy\\blockathon2017-team6\\contracts\\Purchase.sol",
  "compiler": {
    "name": "solc",
    "version": "0.4.18+commit.9cf6e910.Emscripten.clang"
  },
  "schemaVersion": "1.0.1",
  "updatedAt": "2017-11-25T09:53:22.168Z"
}